{
  "transactions": [
    {
      "hash": "0x7a232b73efd0a86b25e9c3e4478871dd6ffb29879baf5d9e001fb3707d9fe055",
      "transactionType": "CALL",
      "contractName": null,
      "contractAddress": "0x779877a7b0d9e8603169ddbd7836e478b4624789",
      "function": "transferAndCall(address,uint256,bytes)",
      "arguments": [
        "0x9DdfaCa8183c41ad55329BdeeD9F6A8d53168B1B",
        "3000000000000000000",
        "0xac5e51e6120528faf9f9486892d984f18916589cb435054cd8bb30b25e9e858a"
      ],
      "transaction": {
        "from": "0xdb98d62002271fd1b7265586d402e2b2977049a8",
        "to": "0x779877a7b0d9e8603169ddbd7836e478b4624789",
        "gas": "0x1c1ff",
        "value": "0x0",
        "input": "0x4000aea00000000000000000000000009ddfaca8183c41ad55329bdeed9f6a8d53168b1b00000000000000000000000000000000000000000000000029a2241af62c000000000000000000000000000000000000000000000000000000000000000000600000000000000000000000000000000000000000000000000000000000000020ac5e51e6120528faf9f9486892d984f18916589cb435054cd8bb30b25e9e858a",
        "nonce": "0xf",
        "chainId": "0xaa36a7"
      },
      "additionalContracts": [],
      "isFixedGasLimit": false
    }
  ],
  "receipts": [
    {
      "status": "0x1",
      "cumulativeGasUsed": "0x1019c26",
      "logs": [
        {
          "address": "0x779877a7b0d9e8603169ddbd7836e478b4624789",
          "topics": [
            "0xddf252ad1be2c89b69c2b068fc378daa952ba7f163c4a11628f55a4df523b3ef",
            "0x000000000000000000000000db98d62002271fd1b7265586d402e2b2977049a8",
            "0x0000000000000000000000009ddfaca8183c41ad55329bdeed9f6a8d53168b1b"
          ],
          "data": "0x00000000000000000000000000000000000000000000000029a2241af62c0000",
          "blockHash": "0xac1cc80f54044ecff4bd38de6b29bee6cbb9082d3602c11aea1a5a042b88a652",
          "blockNumber": "0x6daa22",
          "transactionHash": "0x7a232b73efd0a86b25e9c3e4478871dd6ffb29879baf5d9e001fb3707d9fe055",
          "transactionIndex": "0xcd",
          "logIndex": "0xab",
          "removed": false
        },
        {
          "address": "0x779877a7b0d9e8603169ddbd7836e478b4624789",
          "topics": [
            "0xe19260aff97b920c7df27010903aeb9c8d2be5d310a2c67824cf3f15396e4c16",
            "0x000000000000000000000000db98d62002271fd1b7265586d402e2b2977049a8",
            "0x0000000000000000000000009ddfaca8183c41ad55329bdeed9f6a8d53168b1b"
          ],
          "data": "0x00000000000000000000000000000000000000000000000029a2241af62c000000000000000000000000000000000000000000000000000000000000000000400000000000000000000000000000000000000000000000000000000000000020ac5e51e6120528faf9f9486892d984f18916589cb435054cd8bb30b25e9e858a",
          "blockHash": "0xac1cc80f54044ecff4bd38de6b29bee6cbb9082d3602c11aea1a5a042b88a652",
          "blockNumber": "0x6daa22",
          "transactionHash": "0x7a232b73efd0a86b25e9c3e4478871dd6ffb29879baf5d9e001fb3707d9fe055",
          "transactionIndex": "0xcd",
          "logIndex": "0xac",
          "removed": false
        },
        {
          "address": "0x9ddfaca8183c41ad55329bdeed9f6a8d53168b1b",
          "topics": [
            "0x1ced9348ff549fceab2ac57cd3a9de38edaaab274b725ee82c23e8fc8c4eec7a",
            "0xac5e51e6120528faf9f9486892d984f18916589cb435054cd8bb30b25e9e858a"
          ],
          "data": "0x000000000000000000000000000000000000000000000000000000000000000000000000000000000000000000000000000000000000000029a2241af62c0000",
          "blockHash": "0xac1cc80f54044ecff4bd38de6b29bee6cbb9082d3602c11aea1a5a042b88a652",
          "blockNumber": "0x6daa22",
          "transactionHash": "0x7a232b73efd0a86b25e9c3e4478871dd6ffb29879baf5d9e001fb3707d9fe055",
          "transactionIndex": "0xcd",
          "logIndex": "0xad",
          "removed": false
        }
      ],
      "logsBloom": "0x00000004000000000000000000000000000000000020000000000000020000000000000080000000000000000000000000000000000000000000000000000000008000000000000000000008000100000000000000000001000020000020000008000000000000000000000000000000000000000000000000000010000040000000000000000000000000010000800000000020000000000000000000000000000000000000000000000000010000000000000000000000000004000000000000000002000000000000000000000000000000000000000100000000000000800010000000000000800000000000000000000000000008000000000000000000",
      "type": "0x2",
      "transactionHash": "0x7a232b73efd0a86b25e9c3e4478871dd6ffb29879baf5d9e001fb3707d9fe055",
      "transactionIndex": "0xcd",
      "blockHash": "0xac1cc80f54044ecff4bd38de6b29bee6cbb9082d3602c11aea1a5a042b88a652",
      "blockNumber": "0x6daa22",
      "gasUsed": "0x133b1",
      "effectiveGasPrice": "0x129358ab",
      "from": "0xdb98d62002271fd1b7265586d402e2b2977049a8",
      "to": "0x779877a7b0d9e8603169ddbd7836e478b4624789",
      "contractAddress": null
    }
  ],
  "libraries": [],
  "pending": [],
  "returns": {},
  "timestamp": 1733019792,
  "chain": 11155111,
  "commit": "70b7e7a"
}